{
  "_format": "hh-sol-artifact-1",
  "contractName": "NFTDutchAuction_ERC20Bid",
  "sourceName": "contracts/NFTDutchAuction_ERC20Bids.sol",
  "abi": [
    {
      "inputs": [
        {
          "internalType": "address",
          "name": "_erc20TokenAddress",
          "type": "address"
        },
        {
          "internalType": "address",
          "name": "_erc721TokenAddress",
          "type": "address"
        },
        {
          "internalType": "uint256",
          "name": "_nftTokenId",
          "type": "uint256"
        },
        {
          "internalType": "uint256",
          "name": "_reservePrice",
          "type": "uint256"
        },
        {
          "internalType": "uint256",
          "name": "_numBlocksAuctionOpen",
          "type": "uint256"
        },
        {
          "internalType": "uint256",
          "name": "_offerPriceDecrement",
          "type": "uint256"
        }
      ],
      "stateMutability": "nonpayable",
      "type": "constructor"
    },
    {
      "inputs": [],
      "name": "addressOfOwner",
      "outputs": [
        {
          "internalType": "address payable",
          "name": "",
          "type": "address"
        }
      ],
      "stateMutability": "view",
      "type": "function"
    },
    {
      "inputs": [],
      "name": "auctionEndBlock",
      "outputs": [
        {
          "internalType": "uint256",
          "name": "",
          "type": "uint256"
        }
      ],
      "stateMutability": "view",
      "type": "function"
    },
    {
      "inputs": [],
      "name": "auctionEnded",
      "outputs": [
        {
          "internalType": "bool",
          "name": "",
          "type": "bool"
        }
      ],
      "stateMutability": "view",
      "type": "function"
    },
    {
      "inputs": [],
      "name": "bid",
      "outputs": [
        {
          "internalType": "address",
          "name": "",
          "type": "address"
        }
      ],
      "stateMutability": "payable",
      "type": "function"
    },
    {
      "inputs": [],
      "name": "currentPrice",
      "outputs": [
        {
          "internalType": "uint256",
          "name": "",
          "type": "uint256"
        }
      ],
      "stateMutability": "view",
      "type": "function"
    },
    {
      "inputs": [],
      "name": "erc20TokenAddress",
      "outputs": [
        {
          "internalType": "contract IERC20",
          "name": "",
          "type": "address"
        }
      ],
      "stateMutability": "view",
      "type": "function"
    },
    {
      "inputs": [],
      "name": "erc721TokenAddress",
      "outputs": [
        {
          "internalType": "contract IERC721",
          "name": "",
          "type": "address"
        }
      ],
      "stateMutability": "view",
      "type": "function"
    },
    {
      "inputs": [],
      "name": "initialPrice",
      "outputs": [
        {
          "internalType": "uint256",
          "name": "",
          "type": "uint256"
        }
      ],
      "stateMutability": "view",
      "type": "function"
    },
    {
      "inputs": [],
      "name": "nftTokenId",
      "outputs": [
        {
          "internalType": "uint256",
          "name": "",
          "type": "uint256"
        }
      ],
      "stateMutability": "view",
      "type": "function"
    },
    {
      "inputs": [],
      "name": "numBlocksActionOpen",
      "outputs": [
        {
          "internalType": "uint256",
          "name": "",
          "type": "uint256"
        }
      ],
      "stateMutability": "view",
      "type": "function"
    },
    {
      "inputs": [],
      "name": "reservePrice",
      "outputs": [
        {
          "internalType": "uint256",
          "name": "",
          "type": "uint256"
        }
      ],
      "stateMutability": "view",
      "type": "function"
    },
    {
      "inputs": [],
      "name": "winnerAddress",
      "outputs": [
        {
          "internalType": "address payable",
          "name": "",
          "type": "address"
        }
      ],
      "stateMutability": "view",
      "type": "function"
    },
    {
      "inputs": [],
      "name": "winningBidAmount",
      "outputs": [
        {
          "internalType": "uint256",
          "name": "",
          "type": "uint256"
        }
      ],
      "stateMutability": "view",
      "type": "function"
    }
  ],
  "bytecode": "0x60806040523480156200001157600080fd5b50604051620011ab380380620011ab8339818101604052810190620000379190620002c6565b85600160006101000a81548173ffffffffffffffffffffffffffffffffffffffff021916908373ffffffffffffffffffffffffffffffffffffffff160217905550846000806101000a81548173ffffffffffffffffffffffffffffffffffffffff021916908373ffffffffffffffffffffffffffffffffffffffff1602179055508360028190555082600681905550816007819055508060088190555060008054906101000a900473ffffffffffffffffffffffffffffffffffffffff1673ffffffffffffffffffffffffffffffffffffffff16636352211e856040518263ffffffff1660e01b81526004016200012f919062000373565b602060405180830381865afa1580156200014d573d6000803e3d6000fd5b505050506040513d601f19601f8201168201806040525081019062000173919062000390565b600360006101000a81548173ffffffffffffffffffffffffffffffffffffffff021916908373ffffffffffffffffffffffffffffffffffffffff1602179055504360098190555060075443620001ca9190620003f1565b6005819055508181620001de91906200042c565b83620001eb9190620003f1565b600c81905550600c54600d819055506000600b60006101000a81548160ff02191690831515021790555050505050505062000477565b600080fd5b600073ffffffffffffffffffffffffffffffffffffffff82169050919050565b6000620002538262000226565b9050919050565b620002658162000246565b81146200027157600080fd5b50565b60008151905062000285816200025a565b92915050565b6000819050919050565b620002a0816200028b565b8114620002ac57600080fd5b50565b600081519050620002c08162000295565b92915050565b60008060008060008060c08789031215620002e657620002e562000221565b5b6000620002f689828a0162000274565b96505060206200030989828a0162000274565b95505060406200031c89828a01620002af565b94505060606200032f89828a01620002af565b93505060806200034289828a01620002af565b92505060a06200035589828a01620002af565b9150509295509295509295565b6200036d816200028b565b82525050565b60006020820190506200038a600083018462000362565b92915050565b600060208284031215620003a957620003a862000221565b5b6000620003b98482850162000274565b91505092915050565b7f4e487b7100000000000000000000000000000000000000000000000000000000600052601160045260246000fd5b6000620003fe826200028b565b91506200040b836200028b565b9250828201905080821115620004265762000425620003c2565b5b92915050565b600062000439826200028b565b915062000446836200028b565b925082820262000456816200028b565b9150828204841483151762000470576200046f620003c2565b5b5092915050565b610d2480620004876000396000f3fe6080604052600436106100c25760003560e01c8063864333741161007f578063db2e1eed11610059578063db2e1eed1461023d578063df241cb914610268578063ed7a4e0b14610293578063f835cd3c146102be576100c2565b806386433374146101bc5780639d1b464a146101e7578063a4d89dc514610212576100c2565b806307d52fa8146100c75780631998aeef146100f25780631d0806ae1461011057806321e41eeb1461013b578063559405ee146101665780637e83057414610191575b600080fd5b3480156100d357600080fd5b506100dc6102e9565b6040516100e9919061083f565b60405180910390f35b6100fa6102ef565b604051610107919061089b565b60405180910390f35b34801561011c57600080fd5b50610125610729565b604051610132919061083f565b60405180910390f35b34801561014757600080fd5b5061015061072f565b60405161015d919061083f565b60405180910390f35b34801561017257600080fd5b5061017b610735565b604051610188919061083f565b60405180910390f35b34801561019d57600080fd5b506101a661073b565b6040516101b3919061083f565b60405180910390f35b3480156101c857600080fd5b506101d1610741565b6040516101de91906108d1565b60405180910390f35b3480156101f357600080fd5b506101fc610754565b604051610209919061083f565b60405180910390f35b34801561021e57600080fd5b5061022761075a565b604051610234919061090d565b60405180910390f35b34801561024957600080fd5b50610252610780565b60405161025f919061083f565b60405180910390f35b34801561027457600080fd5b5061027d610786565b60405161028a9190610987565b60405180910390f35b34801561029f57600080fd5b506102a86107aa565b6040516102b5919061090d565b60405180910390f35b3480156102ca57600080fd5b506102d36107d0565b6040516102e091906109c3565b60405180910390f35b60055481565b6000600b60009054906101000a900460ff1615610341576040517f08c379a000000000000000000000000000000000000000000000000000000000815260040161033890610a3b565b60405180910390fd5b6005544310610385576040517f08c379a000000000000000000000000000000000000000000000000000000000815260040161037c90610a3b565b60405180910390fd5b61038d6107f6565b600d543410156103d2576040517f08c379a00000000000000000000000000000000000000000000000000000000081526004016103c990610aa7565b60405180910390fd5b600073ffffffffffffffffffffffffffffffffffffffff16600460009054906101000a900473ffffffffffffffffffffffffffffffffffffffff1673ffffffffffffffffffffffffffffffffffffffff1614610463576040517f08c379a000000000000000000000000000000000000000000000000000000000815260040161045a90610b13565b60405180910390fd5b6001600b60006101000a81548160ff02191690831515021790555033600460006101000a81548173ffffffffffffffffffffffffffffffffffffffff021916908373ffffffffffffffffffffffffffffffffffffffff160217905550600160009054906101000a900473ffffffffffffffffffffffffffffffffffffffff1673ffffffffffffffffffffffffffffffffffffffff1663095ea7b330346040518363ffffffff1660e01b815260040161051c929190610b33565b6020604051808303816000875af115801561053b573d6000803e3d6000fd5b505050506040513d601f19601f8201168201806040525081019061055f9190610b8d565b50600160009054906101000a900473ffffffffffffffffffffffffffffffffffffffff1673ffffffffffffffffffffffffffffffffffffffff166323b872dd33600360009054906101000a900473ffffffffffffffffffffffffffffffffffffffff16346040518463ffffffff1660e01b81526004016105e193929190610bdb565b6020604051808303816000875af1158015610600573d6000803e3d6000fd5b505050506040513d601f19601f820116820180604052508101906106249190610b8d565b5060008054906101000a900473ffffffffffffffffffffffffffffffffffffffff1673ffffffffffffffffffffffffffffffffffffffff166323b872dd600360009054906101000a900473ffffffffffffffffffffffffffffffffffffffff16600460009054906101000a900473ffffffffffffffffffffffffffffffffffffffff166002546040518463ffffffff1660e01b81526004016106c893929190610c12565b600060405180830381600087803b1580156106e257600080fd5b505af11580156106f6573d6000803e3d6000fd5b5050505034600a81905550600460009054906101000a900473ffffffffffffffffffffffffffffffffffffffff16905090565b600c5481565b60075481565b600a5481565b60025481565b600b60009054906101000a900460ff1681565b600d5481565b600360009054906101000a900473ffffffffffffffffffffffffffffffffffffffff1681565b60065481565b60008054906101000a900473ffffffffffffffffffffffffffffffffffffffff1681565b600460009054906101000a900473ffffffffffffffffffffffffffffffffffffffff1681565b600160009054906101000a900473ffffffffffffffffffffffffffffffffffffffff1681565b600954436108049190610c78565b6008546108119190610cac565b600c5461081e9190610c78565b600d81905550565b6000819050919050565b61083981610826565b82525050565b60006020820190506108546000830184610830565b92915050565b600073ffffffffffffffffffffffffffffffffffffffff82169050919050565b60006108858261085a565b9050919050565b6108958161087a565b82525050565b60006020820190506108b0600083018461088c565b92915050565b60008115159050919050565b6108cb816108b6565b82525050565b60006020820190506108e660008301846108c2565b92915050565b60006108f78261085a565b9050919050565b610907816108ec565b82525050565b600060208201905061092260008301846108fe565b92915050565b6000819050919050565b600061094d6109486109438461085a565b610928565b61085a565b9050919050565b600061095f82610932565b9050919050565b600061097182610954565b9050919050565b61098181610966565b82525050565b600060208201905061099c6000830184610978565b92915050565b60006109ad82610954565b9050919050565b6109bd816109a2565b82525050565b60006020820190506109d860008301846109b4565b92915050565b600082825260208201905092915050565b7f41756374696f6e2068617320656e646564000000000000000000000000000000600082015250565b6000610a256011836109de565b9150610a30826109ef565b602082019050919050565b60006020820190508181036000830152610a5481610a18565b9050919050565b7f426964206973206c6f776572207468616e2063757272656e7420707269636500600082015250565b6000610a91601f836109de565b9150610a9c82610a5b565b602082019050919050565b60006020820190508181036000830152610ac081610a84565b9050919050565b7f41756374696f6e2068617320616c7265616479206265656e20776f6e00000000600082015250565b6000610afd601c836109de565b9150610b0882610ac7565b602082019050919050565b60006020820190508181036000830152610b2c81610af0565b9050919050565b6000604082019050610b48600083018561088c565b610b556020830184610830565b9392505050565b600080fd5b610b6a816108b6565b8114610b7557600080fd5b50565b600081519050610b8781610b61565b92915050565b600060208284031215610ba357610ba2610b5c565b5b6000610bb184828501610b78565b91505092915050565b6000610bc582610954565b9050919050565b610bd581610bba565b82525050565b6000606082019050610bf0600083018661088c565b610bfd6020830185610bcc565b610c0a6040830184610830565b949350505050565b6000606082019050610c276000830186610bcc565b610c346020830185610bcc565b610c416040830184610830565b949350505050565b7f4e487b7100000000000000000000000000000000000000000000000000000000600052601160045260246000fd5b6000610c8382610826565b9150610c8e83610826565b9250828203905081811115610ca657610ca5610c49565b5b92915050565b6000610cb782610826565b9150610cc283610826565b9250828202610cd081610826565b91508282048414831517610ce757610ce6610c49565b5b509291505056fea264697066735822122059c18cc14b53a9f317e451758f756caf0ee21a85432a9ddb36cef88b3534f41664736f6c63430008110033",
  "linkReferences": {},
  "deployedLinkReferences": {}
}