{
  "_format": "hh-sol-artifact-1",
  "contractName": "NFTDutchAuction_ERC20Bid",
  "sourceName": "contracts/NFTDutchAuction_ERC20Bids.sol",
  "abi": [
    {
      "inputs": [
        {
          "internalType": "address",
          "name": "_erc20TokenAddress",
          "type": "address"
        },
        {
          "internalType": "address",
          "name": "_erc721TokenAddress",
          "type": "address"
        },
        {
          "internalType": "uint256",
          "name": "_nftTokenId",
          "type": "uint256"
        },
        {
          "internalType": "uint256",
          "name": "_reservePrice",
          "type": "uint256"
        },
        {
          "internalType": "uint256",
          "name": "_numBlocksAuctionOpen",
          "type": "uint256"
        },
        {
          "internalType": "uint256",
          "name": "_offerPriceDecrement",
          "type": "uint256"
        }
      ],
      "stateMutability": "nonpayable",
      "type": "constructor"
    },
    {
      "inputs": [],
      "name": "addressOfOwner",
      "outputs": [
        {
          "internalType": "address payable",
          "name": "",
          "type": "address"
        }
      ],
      "stateMutability": "view",
      "type": "function"
    },
    {
      "inputs": [],
      "name": "auctionEndBlock",
      "outputs": [
        {
          "internalType": "uint256",
          "name": "",
          "type": "uint256"
        }
      ],
      "stateMutability": "view",
      "type": "function"
    },
    {
      "inputs": [],
      "name": "auctionEnded",
      "outputs": [
        {
          "internalType": "bool",
          "name": "",
          "type": "bool"
        }
      ],
      "stateMutability": "view",
      "type": "function"
    },
    {
      "inputs": [],
      "name": "bid",
      "outputs": [
        {
          "internalType": "address",
          "name": "",
          "type": "address"
        }
      ],
      "stateMutability": "payable",
      "type": "function"
    },
    {
      "inputs": [],
      "name": "currentPrice",
      "outputs": [
        {
          "internalType": "uint256",
          "name": "",
          "type": "uint256"
        }
      ],
      "stateMutability": "view",
      "type": "function"
    },
    {
      "inputs": [],
      "name": "erc20TokenAddress",
      "outputs": [
        {
          "internalType": "contract IERC20",
          "name": "",
          "type": "address"
        }
      ],
      "stateMutability": "view",
      "type": "function"
    },
    {
      "inputs": [],
      "name": "erc721TokenAddress",
      "outputs": [
        {
          "internalType": "contract IERC721",
          "name": "",
          "type": "address"
        }
      ],
      "stateMutability": "view",
      "type": "function"
    },
    {
      "inputs": [],
      "name": "initialPrice",
      "outputs": [
        {
          "internalType": "uint256",
          "name": "",
          "type": "uint256"
        }
      ],
      "stateMutability": "view",
      "type": "function"
    },
    {
      "inputs": [],
      "name": "nftTokenId",
      "outputs": [
        {
          "internalType": "uint256",
          "name": "",
          "type": "uint256"
        }
      ],
      "stateMutability": "view",
      "type": "function"
    },
    {
      "inputs": [],
      "name": "numBlocksActionOpen",
      "outputs": [
        {
          "internalType": "uint256",
          "name": "",
          "type": "uint256"
        }
      ],
      "stateMutability": "view",
      "type": "function"
    },
    {
      "inputs": [],
      "name": "reservePrice",
      "outputs": [
        {
          "internalType": "uint256",
          "name": "",
          "type": "uint256"
        }
      ],
      "stateMutability": "view",
      "type": "function"
    },
    {
      "inputs": [],
      "name": "winnerAddress",
      "outputs": [
        {
          "internalType": "address payable",
          "name": "",
          "type": "address"
        }
      ],
      "stateMutability": "view",
      "type": "function"
    },
    {
      "inputs": [],
      "name": "winningBidAmount",
      "outputs": [
        {
          "internalType": "uint256",
          "name": "",
          "type": "uint256"
        }
      ],
      "stateMutability": "view",
      "type": "function"
    }
  ],
  "bytecode": "0x60806040523480156200001157600080fd5b50604051620012cb380380620012cb8339818101604052810190620000379190620002c6565b85600160006101000a81548173ffffffffffffffffffffffffffffffffffffffff021916908373ffffffffffffffffffffffffffffffffffffffff160217905550846000806101000a81548173ffffffffffffffffffffffffffffffffffffffff021916908373ffffffffffffffffffffffffffffffffffffffff1602179055508360028190555082600681905550816007819055508060088190555060008054906101000a900473ffffffffffffffffffffffffffffffffffffffff1673ffffffffffffffffffffffffffffffffffffffff16636352211e856040518263ffffffff1660e01b81526004016200012f919062000373565b602060405180830381865afa1580156200014d573d6000803e3d6000fd5b505050506040513d601f19601f8201168201806040525081019062000173919062000390565b600360006101000a81548173ffffffffffffffffffffffffffffffffffffffff021916908373ffffffffffffffffffffffffffffffffffffffff1602179055504360098190555060075443620001ca9190620003f1565b6005819055508181620001de91906200042c565b83620001eb9190620003f1565b600c81905550600c54600d819055506000600b60006101000a81548160ff02191690831515021790555050505050505062000477565b600080fd5b600073ffffffffffffffffffffffffffffffffffffffff82169050919050565b6000620002538262000226565b9050919050565b620002658162000246565b81146200027157600080fd5b50565b60008151905062000285816200025a565b92915050565b6000819050919050565b620002a0816200028b565b8114620002ac57600080fd5b50565b600081519050620002c08162000295565b92915050565b60008060008060008060c08789031215620002e657620002e562000221565b5b6000620002f689828a0162000274565b96505060206200030989828a0162000274565b95505060406200031c89828a01620002af565b94505060606200032f89828a01620002af565b93505060806200034289828a01620002af565b92505060a06200035589828a01620002af565b9150509295509295509295565b6200036d816200028b565b82525050565b60006020820190506200038a600083018462000362565b92915050565b600060208284031215620003a957620003a862000221565b5b6000620003b98482850162000274565b91505092915050565b7f4e487b7100000000000000000000000000000000000000000000000000000000600052601160045260246000fd5b6000620003fe826200028b565b91506200040b836200028b565b9250828201905080821115620004265762000425620003c2565b5b92915050565b600062000439826200028b565b915062000446836200028b565b925082820262000456816200028b565b9150828204841483151762000470576200046f620003c2565b5b5092915050565b610e4480620004876000396000f3fe6080604052600436106100c25760003560e01c8063864333741161007f578063db2e1eed11610059578063db2e1eed1461023d578063df241cb914610268578063ed7a4e0b14610293578063f835cd3c146102be576100c2565b806386433374146101bc5780639d1b464a146101e7578063a4d89dc514610212576100c2565b806307d52fa8146100c75780631998aeef146100f25780631d0806ae1461011057806321e41eeb1461013b578063559405ee146101665780637e83057414610191575b600080fd5b3480156100d357600080fd5b506100dc6102e9565b6040516100e9919061095f565b60405180910390f35b6100fa6102ef565b60405161010791906109bb565b60405180910390f35b34801561011c57600080fd5b50610125610849565b604051610132919061095f565b60405180910390f35b34801561014757600080fd5b5061015061084f565b60405161015d919061095f565b60405180910390f35b34801561017257600080fd5b5061017b610855565b604051610188919061095f565b60405180910390f35b34801561019d57600080fd5b506101a661085b565b6040516101b3919061095f565b60405180910390f35b3480156101c857600080fd5b506101d1610861565b6040516101de91906109f1565b60405180910390f35b3480156101f357600080fd5b506101fc610874565b604051610209919061095f565b60405180910390f35b34801561021e57600080fd5b5061022761087a565b6040516102349190610a2d565b60405180910390f35b34801561024957600080fd5b506102526108a0565b60405161025f919061095f565b60405180910390f35b34801561027457600080fd5b5061027d6108a6565b60405161028a9190610aa7565b60405180910390f35b34801561029f57600080fd5b506102a86108ca565b6040516102b59190610a2d565b60405180910390f35b3480156102ca57600080fd5b506102d36108f0565b6040516102e09190610ae3565b60405180910390f35b60055481565b6000600b60009054906101000a900460ff16801561035c5750600073ffffffffffffffffffffffffffffffffffffffff16600460009054906101000a900473ffffffffffffffffffffffffffffffffffffffff1673ffffffffffffffffffffffffffffffffffffffff1614155b80156103b65750600460009054906101000a900473ffffffffffffffffffffffffffffffffffffffff1673ffffffffffffffffffffffffffffffffffffffff163373ffffffffffffffffffffffffffffffffffffffff1614155b156104325760003390508073ffffffffffffffffffffffffffffffffffffffff166108fc479081150290604051600060405180830381858888f19350505050158015610406573d6000803e3d6000fd5b50600460009054906101000a900473ffffffffffffffffffffffffffffffffffffffff16915050610846565b600b60009054906101000a900460ff1615610482576040517f08c379a000000000000000000000000000000000000000000000000000000000815260040161047990610b5b565b60405180910390fd5b60055443106104c6576040517f08c379a00000000000000000000000000000000000000000000000000000000081526004016104bd90610b5b565b60405180910390fd5b6104ce610916565b600d54341015610513576040517f08c379a000000000000000000000000000000000000000000000000000000000815260040161050a90610bc7565b60405180910390fd5b600073ffffffffffffffffffffffffffffffffffffffff16600460009054906101000a900473ffffffffffffffffffffffffffffffffffffffff1673ffffffffffffffffffffffffffffffffffffffff16146105a4576040517f08c379a000000000000000000000000000000000000000000000000000000000815260040161059b90610c33565b60405180910390fd5b6001600b60006101000a81548160ff02191690831515021790555033600460006101000a81548173ffffffffffffffffffffffffffffffffffffffff021916908373ffffffffffffffffffffffffffffffffffffffff160217905550600160009054906101000a900473ffffffffffffffffffffffffffffffffffffffff1673ffffffffffffffffffffffffffffffffffffffff1663095ea7b330346040518363ffffffff1660e01b815260040161065d929190610c53565b6020604051808303816000875af115801561067c573d6000803e3d6000fd5b505050506040513d601f19601f820116820180604052508101906106a09190610cad565b50600160009054906101000a900473ffffffffffffffffffffffffffffffffffffffff1673ffffffffffffffffffffffffffffffffffffffff166323b872dd3330346040518463ffffffff1660e01b815260040161070093929190610cda565b6020604051808303816000875af115801561071f573d6000803e3d6000fd5b505050506040513d601f19601f820116820180604052508101906107439190610cad565b5060008054906101000a900473ffffffffffffffffffffffffffffffffffffffff1673ffffffffffffffffffffffffffffffffffffffff166323b872dd600360009054906101000a900473ffffffffffffffffffffffffffffffffffffffff16600460009054906101000a900473ffffffffffffffffffffffffffffffffffffffff166002546040518463ffffffff1660e01b81526004016107e793929190610d32565b600060405180830381600087803b15801561080157600080fd5b505af1158015610815573d6000803e3d6000fd5b5050505034600a81905550600460009054906101000a900473ffffffffffffffffffffffffffffffffffffffff1690505b90565b600c5481565b60075481565b600a5481565b60025481565b600b60009054906101000a900460ff1681565b600d5481565b600360009054906101000a900473ffffffffffffffffffffffffffffffffffffffff1681565b60065481565b60008054906101000a900473ffffffffffffffffffffffffffffffffffffffff1681565b600460009054906101000a900473ffffffffffffffffffffffffffffffffffffffff1681565b600160009054906101000a900473ffffffffffffffffffffffffffffffffffffffff1681565b600954436109249190610d98565b6008546109319190610dcc565b600c5461093e9190610d98565b600d81905550565b6000819050919050565b61095981610946565b82525050565b60006020820190506109746000830184610950565b92915050565b600073ffffffffffffffffffffffffffffffffffffffff82169050919050565b60006109a58261097a565b9050919050565b6109b58161099a565b82525050565b60006020820190506109d060008301846109ac565b92915050565b60008115159050919050565b6109eb816109d6565b82525050565b6000602082019050610a0660008301846109e2565b92915050565b6000610a178261097a565b9050919050565b610a2781610a0c565b82525050565b6000602082019050610a426000830184610a1e565b92915050565b6000819050919050565b6000610a6d610a68610a638461097a565b610a48565b61097a565b9050919050565b6000610a7f82610a52565b9050919050565b6000610a9182610a74565b9050919050565b610aa181610a86565b82525050565b6000602082019050610abc6000830184610a98565b92915050565b6000610acd82610a74565b9050919050565b610add81610ac2565b82525050565b6000602082019050610af86000830184610ad4565b92915050565b600082825260208201905092915050565b7f41756374696f6e2068617320656e646564000000000000000000000000000000600082015250565b6000610b45601183610afe565b9150610b5082610b0f565b602082019050919050565b60006020820190508181036000830152610b7481610b38565b9050919050565b7f426964206973206c6f776572207468616e2063757272656e7420707269636500600082015250565b6000610bb1601f83610afe565b9150610bbc82610b7b565b602082019050919050565b60006020820190508181036000830152610be081610ba4565b9050919050565b7f41756374696f6e2068617320616c7265616479206265656e20776f6e00000000600082015250565b6000610c1d601c83610afe565b9150610c2882610be7565b602082019050919050565b60006020820190508181036000830152610c4c81610c10565b9050919050565b6000604082019050610c6860008301856109ac565b610c756020830184610950565b9392505050565b600080fd5b610c8a816109d6565b8114610c9557600080fd5b50565b600081519050610ca781610c81565b92915050565b600060208284031215610cc357610cc2610c7c565b5b6000610cd184828501610c98565b91505092915050565b6000606082019050610cef60008301866109ac565b610cfc60208301856109ac565b610d096040830184610950565b949350505050565b6000610d1c82610a74565b9050919050565b610d2c81610d11565b82525050565b6000606082019050610d476000830186610d23565b610d546020830185610d23565b610d616040830184610950565b949350505050565b7f4e487b7100000000000000000000000000000000000000000000000000000000600052601160045260246000fd5b6000610da382610946565b9150610dae83610946565b9250828203905081811115610dc657610dc5610d69565b5b92915050565b6000610dd782610946565b9150610de283610946565b9250828202610df081610946565b91508282048414831517610e0757610e06610d69565b5b509291505056fea2646970667358221220d36c7efc3235f5a34e75f2a2c781a8a345075a6a982e70c34ac462d05bee120f64736f6c63430008110033",
  "linkReferences": {},
  "deployedLinkReferences": {}
}